{
  "contractName": "Documents",
  "abi": [
    {
      "inputs": [],
      "payable": false,
      "stateMutability": "nonpayable",
      "type": "constructor"
    },
    {
      "anonymous": false,
      "inputs": [
        {
          "indexed": false,
          "internalType": "uint256",
          "name": "_documentID",
          "type": "uint256"
        }
      ],
      "name": "documentGenerated",
      "type": "event"
    },
    {
      "constant": true,
      "inputs": [
        {
          "internalType": "uint256",
          "name": "",
          "type": "uint256"
        }
      ],
      "name": "documentsinB",
      "outputs": [
        {
          "internalType": "uint256",
          "name": "AadharID",
          "type": "uint256"
        },
        {
          "internalType": "string",
          "name": "HashedValue",
          "type": "string"
        }
      ],
      "payable": false,
      "stateMutability": "view",
      "type": "function"
    },
    {
      "constant": false,
      "inputs": [
        {
          "internalType": "uint256",
          "name": "_AadharID",
          "type": "uint256"
        },
        {
          "internalType": "string",
          "name": "_HashedValue",
          "type": "string"
        }
      ],
      "name": "GenerateDocument",
      "outputs": [],
      "payable": false,
      "stateMutability": "nonpayable",
      "type": "function"
    },
    {
      "constant": true,
      "inputs": [
        {
          "internalType": "uint256",
          "name": "_AadharID",
          "type": "uint256"
        }
      ],
      "name": "RetrieveData",
      "outputs": [
        {
          "internalType": "uint256",
          "name": "",
          "type": "uint256"
        },
        {
          "internalType": "string",
          "name": "",
          "type": "string"
        }
      ],
      "payable": false,
      "stateMutability": "view",
      "type": "function"
    }
  ],
  "bytecode": "0x608060405234801561001057600080fd5b5061059d806100206000396000f3fe608060405234801561001057600080fd5b50600436106100415760003560e01c80635bed177214610046578063714e6cd1146100f4578063c6f7c87b146101b9575b600080fd5b6100726004803603602081101561005c57600080fd5b8101908080359060200190929190505050610267565b6040518083815260200180602001828103825283818151815260200191508051906020019080838360005b838110156100b857808201518184015260208101905061009d565b50505050905090810190601f1680156100e55780820380516001836020036101000a031916815260200191505b50935050505060405180910390f35b6101b76004803603604081101561010a57600080fd5b81019080803590602001909291908035906020019064010000000081111561013157600080fd5b82018360208201111561014357600080fd5b8035906020019184600183028401116401000000008311171561016557600080fd5b91908080601f016020809104026020016040519081016040528093929190818152602001838380828437600081840152601f19601f82011690508083019250505050505050919291929050505061035b565b005b6101e5600480360360208110156101cf57600080fd5b81019080803590602001909291905050506103ed565b6040518083815260200180602001828103825283818151815260200191508051906020019080838360005b8381101561022b578082015181840152602081019050610210565b50505050905090810190601f1680156102585780820380516001836020036101000a031916815260200191505b50935050505060405180910390f35b6000606060008390506102786104a9565b60008083815260200190815260200160002060405180604001604052908160008201548152602001600182018054600181600116156101000203166002900480601f0160208091040260200160405190810160405280929190818152602001828054600181600116156101000203166002900480156103385780601f1061030d57610100808354040283529160200191610338565b820191906000526020600020905b81548152906001019060200180831161031b57829003601f168201915b505050505081525050905080600001518160200151809050935093505050915091565b60008290506040518060400160405280848152602001838152506000808381526020019081526020016000206000820151816000015560208201518160010190805190602001906103ad9291906104c3565b509050507f05b460a64063c38fdb7fb7d07d2df91ad097c5e5e8bb342724f40bd390ec04c8816040518082815260200191505060405180910390a1505050565b6000602052806000526040600020600091509050806000015490806001018054600181600116156101000203166002900480601f01602080910402602001604051908101604052809291908181526020018280546001816001161561010002031660029004801561049f5780601f106104745761010080835404028352916020019161049f565b820191906000526020600020905b81548152906001019060200180831161048257829003601f168201915b5050505050905082565b604051806040016040528060008152602001606081525090565b828054600181600116156101000203166002900490600052602060002090601f016020900481019282601f1061050457805160ff1916838001178555610532565b82800160010185558215610532579182015b82811115610531578251825591602001919060010190610516565b5b50905061053f9190610543565b5090565b61056591905b80821115610561576000816000905550600101610549565b5090565b9056fea265627a7a72315820aa97f7335c9a77540e98891c69d1bb2b0b3b715ae85d4979985e853382f4cd3d64736f6c63430005100032",
  "source": "// SPDX-License-Identifier: MIT\r\npragma solidity >=0.4.22 <0.9.0;\r\n\r\ncontract Documents\r\n{\r\n    constructor() public {}\r\n    struct Doc\r\n    {\r\n        uint AadharID;\r\n        string HashedValue;\r\n    }\r\n    mapping(uint=>Doc) public documentsinB;\r\n    event documentGenerated(uint _documentID);\r\n    function GenerateDocument(uint _AadharID,string memory _HashedValue) public\r\n    {\r\n        uint Key = _AadharID;\r\n        documentsinB[Key] = Doc(_AadharID,_HashedValue);\r\n        emit documentGenerated(Key);\r\n    }\r\n    function RetrieveData(uint _AadharID)public view returns(uint,string memory)\r\n    {\r\n        uint Key = _AadharID;\r\n        Doc memory retrieved = documentsinB[Key];\r\n        return (retrieved.AadharID,retrieved.HashedValue);\r\n    }\r\n \r\n}",
  "sourcePath": "C:\\Users\\Dell\\Desktop\\SPIT\\SecureBuzCertificate\\contracts\\Documents.sol",
  "compiler": {
    "name": "solc",
    "version": "0.5.16+commit.9c3226ce.Emscripten.clang"
  },
  "schemaVersion": "3.4.10",
  "updatedAt": "2023-02-04T12:04:49.717Z",
  "devdoc": {
    "methods": {}
  },
  "userdoc": {
    "methods": {}
  }
}